:1000000002080075985075CBFF75CDFF75CADC7579
:10001000CCDC75C830D2CAC2B4D2A8D288D2ACD295
:02002000AF220D
:100023000200C812020B75A083D2A61201F1C2A668
:100033001201FED2A61201F1C2A61201F1D2A6123A
:1000430001F1C2A61201F1C2A0D2A61201F1C2A609
:100053001201F17F281201517F011201517F081211
:1000630001517F0C1201517F061201517F0F1201C2
:10007300517F01020151AC07EC3395E0FEEF6401BF
:100083004E7007ED247FFF120151ECFF3395E0FE24
:10009300EF64024E7007ED24BFFF120151ECFF33F2
:1000A30095E0FEEF64034E7007ED248FFF120151BC
:1000B300AF04EF3395E0FEEF64044E7007ED24CFF9
:1000C300FF12015122C0E0C0F0C083C082C0D075CE
:1000D300D000C000C001C002C003C004C005C006F8
:1000E300C0073098137D0C7F03120079AF99120279
:1000F300857F0C120151C298D007D006D005D004D9
:10010300D003D002D001D000D0D0D082D083D0F0A1
:10011300D0E0328B218A2289237F011201C1AB21D6
:10012300E5232410F9E43522FA7F021201C1AB2141
:10013300E5232420F9E43522FA7F031201C1AB2120
:10014300E5232430F9E43522FA7F040201C1C2A475
:10015300C2A5EFC4540F53A0F042A0D2A6C2A6EF8B
:10016300540F53A0F042A0D2A6C2A643A00FD2A51B
:10017300C2A4D20030000ED2A6A2A39200C2A6D27D
:10018300A6C2A680EF22D2A4C2A5EFC4540F53A0E7
:10019300F042A0D2A6C2A6EF540F53A0F042A0D2C1
:1001A300A6C2A643A00FD2A5C2A4D20130010ED28B
:1001B300A6A2A39201C2A6D2A6C2A680EF228B2436
:1001C3008A2589267D011200791DEDFF3395E0FE16
:1001D300C3EF9410EE648094805012AB240526E59F
:1001E30026AA257002052512027F0D80DD22751ACD
:1001F300047519E0D519FDD51AFA22751A14751963
:1002030070D519FDD51AFA22751AC3751989D5192E
:10021300FDD51AFA228B218A228923120079AB2178
:10022300AA22A92312023A600D0523E523700205D1
:100233002212027F80E822BB010689828A83E022A0
:100243005002E722BBFE02E32289828A83E49322DF
:100253001200031200261202887B007A0079087DBF
:10026300017F0312021880FE11082052656365693D
:100273007665643A202020202020000014F9120221
:100283003AFF0201897BFF7A0279910201165363D7
:100293007265656E204F75747075742020202D2D46
:1002A3002D2D2D2D2D2D2D2D2D2D2D2D2D2D202095
:1002B300492E204D616D6D61646F762020202D2DB8
:0F02C3002D2D2D2D2D2D2D2D2D2D2D2D2D2D00B6
:10080000787FE4F6D8FD758126020847020253E49A
:1008100093A3F8E493A34003F68001F208DFF48089
:1008200029E493A3F85407240CC8C333C4540F44D9
:1008300020C8834004F456800146F6DFE4800B01B3
:100840000204081020408090026BE47E019360BC9B
:10085000A3FF543F30E509541FFEE493A360010E4B
:10086000CF54C025E060A840B8E493A3FAE493A372
:10087000F8E493A3C8C582C8CAC583CAF0A3C8C593
:0C08800082C8CAC583CADFE9DEE780BE7B
:00000001FF
