:10000000020A83E709F608DFFA8046E709F208DF0B
:10001000FA803E88828C83E709F0A3DFFA8032E31E
:1000200009F608DFFA8078E309F208DFFA807088C1
:10003000828C83E309F0A3DFFA806489828A83E0FB
:10004000A3F608DFFA805889828A83E0A3F208DFEA
:10005000FA804C80D280FA80C680D4806980F28099
:1000600033801080A680EA809A80A880DA80E280BF
:10007000CA803389828A83ECFAE493A3C8C582C814
:10008000CCC583CCF0A3C8C582C8CCC583CCDFE97E
:10009000DEE7800D89828A83E493A3F608DFF9EC1A
:1000A000FAA9F0EDFB2289828A83ECFAE0A3C8C5A5
:1000B00082C8CCC583CCF0A3C8C582C8CCC583CCCC
:1000C000DFEADEE880DB89828A83E493A3F208DF3B
:1000D000F980CC88F0EF60010E4E60C388F0ED240B
:1000E00002B4040050B9F582EB2402B4040050AF0E
:1000F000232345822390005373EF8DF0A4A8F0CF03
:100100008CF0A428CE8DF0A42EFE22D083D082F8CD
:10011000E4937012740193700DA3A393F874019388
:10012000F5828883E4737402936860EFA3A3A380CD
:10013000DFE4FFEFD39509E5086480F874809850F8
:1001400016E4FEEED39509E5086480F874809850B3
:10015000030E80EF0F80DC22AD07AC067B017A0036
:10016000D3EB9DEC6480F8EA6480985011C2801251
:100170000131D2801201310BBB00010A80E222C2A0
:10018000B4D208E4F50A75985075C83075CBFF7580
:10019000CDFF75CADC75CCDCD2CA22E510450F60F4
:1001A00008E4F50FF510FEFF22750F007510017EB3
:1001B000007F012202080028020F0001020B002824
:1001C000020D000000AE0DAF0E7C007D0A1200F99A
:1001D0008E088F0922D2B4C2998F993099FDC2B48A
:0F01E00022850B08850C09227FBFDFEF0000008E
:1008000078117C007D007BFF7A0179EC7E007F030C
:100810001200D3E4F51412017FE50A9001E893F584
:10082000A085A020A20282018203500302093E306B
:1008300008E7E52012010B09177709217B09317DB3
:1008400008DBB708EFBB0903BD089ED708B3DB0878
:10085000C7DD085FE70874EB0889ED000009397F00
:10086000311201D57F017E00120158750D00750E01
:10087000010209397F321201D57F027E0012015830
:10088000750D00750E020209397F331201D57F0301
:100890007E00120158750D00750E030209397F3470
:1008A0001201D57F047E00120158750D00750E04EB
:1008B0000209397F351201D57F057E001201587576
:1008C0000D00750E0580727F361201D57F067E0001
:1008D000120158750D00750E06805E7F371201D526
:1008E0007F077E00120158750D00750E07804A7F44
:1008F000381201D57F087E00120158750D00750E63
:100900000880367F391201D57F097E0012015875A3
:100910000D00750E0980227F2A1201D51201C580B3
:10092000187F301201D512019BEE4F24FF92808078
:10093000087F231201D51201E1D208020819C3E58C
:100940000A9403748094805004050A8003E4F50A35
:05095000D208020819A5
:100A8300787FE4F6D8FD758121020ACA020800E4E2
:100A930093A3F8E493A34003F68001F208DFF48004
:100AA30029E493A3F85407240CC8C333C4540F4454
:100AB30020C8834004F456800146F6DFE4800B012E
:100AC300020408102040809001B4E47E019360BCCE
:100AD300A3FF543F30E509541FFEE493A360010EC6
:100AE300CF54C025E060A840B8E493A3FAE493A3ED
:100AF300F8E493A3C8C582C8CAC583CAF0A3C8C50E
:0C0B030082C8CAC583CADFE9DEE780BEF5
:00000001FF
